{"abi":[{"type":"constructor","inputs":[],"stateMutability":"nonpayable"},{"type":"function","name":"DATA_PROVIDER_ROLE","inputs":[],"outputs":[{"name":"","type":"bytes32","internalType":"bytes32"}],"stateMutability":"view"},{"type":"function","name":"DEFAULT_ADMIN_ROLE","inputs":[],"outputs":[{"name":"","type":"bytes32","internalType":"bytes32"}],"stateMutability":"view"},{"type":"function","name":"adminAddress","inputs":[],"outputs":[{"name":"","type":"address","internalType":"address payable"}],"stateMutability":"view"},{"type":"function","name":"cancelPendingRequest","inputs":[{"name":"requestId","type":"uint256","internalType":"uint256"}],"outputs":[],"stateMutability":"nonpayable"},{"type":"function","name":"drainFunds","inputs":[],"outputs":[],"stateMutability":"nonpayable"},{"type":"function","name":"fulfillRequest","inputs":[{"name":"requestId","type":"uint256","internalType":"uint256"},{"name":"response","type":"tuple","internalType":"struct Sibyl.Response","components":[{"name":"integerResponse","type":"uint256","internalType":"uint256"},{"name":"stringResponse","type":"string","internalType":"string"},{"name":"boolResponse","type":"bool","internalType":"bool"}]}],"outputs":[],"stateMutability":"nonpayable"},{"type":"function","name":"getBalance","inputs":[],"outputs":[{"name":"","type":"uint256","internalType":"uint256"}],"stateMutability":"view"},{"type":"function","name":"getCurrentPrice","inputs":[],"outputs":[{"name":"","type":"uint256","internalType":"uint256"}],"stateMutability":"view"},{"type":"function","name":"getQueryStatus","inputs":[{"name":"requestId","type":"uint256","internalType":"uint256"}],"outputs":[{"name":"","type":"uint8","internalType":"enum Sibyl.RequestStatus"}],"stateMutability":"view"},{"type":"function","name":"getRoleAdmin","inputs":[{"name":"role","type":"bytes32","internalType":"bytes32"}],"outputs":[{"name":"","type":"bytes32","internalType":"bytes32"}],"stateMutability":"view"},{"type":"function","name":"grantRole","inputs":[{"name":"role","type":"bytes32","internalType":"bytes32"},{"name":"account","type":"address","internalType":"address"}],"outputs":[],"stateMutability":"nonpayable"},{"type":"function","name":"hasRole","inputs":[{"name":"role","type":"bytes32","internalType":"bytes32"},{"name":"account","type":"address","internalType":"address"}],"outputs":[{"name":"","type":"bool","internalType":"bool"}],"stateMutability":"view"},{"type":"function","name":"pause","inputs":[],"outputs":[],"stateMutability":"nonpayable"},{"type":"function","name":"paused","inputs":[],"outputs":[{"name":"","type":"bool","internalType":"bool"}],"stateMutability":"view"},{"type":"function","name":"query","inputs":[{"name":"question","type":"string","internalType":"string"},{"name":"model","type":"uint8","internalType":"enum Sibyl.AIModel"},{"name":"responseType","type":"uint8","internalType":"enum Sibyl.ResponseType"}],"outputs":[{"name":"","type":"uint256","internalType":"uint256"}],"stateMutability":"payable"},{"type":"function","name":"readResponse","inputs":[{"name":"requestId","type":"uint256","internalType":"uint256"}],"outputs":[{"name":"","type":"tuple","internalType":"struct Sibyl.Response","components":[{"name":"integerResponse","type":"uint256","internalType":"uint256"},{"name":"stringResponse","type":"string","internalType":"string"},{"name":"boolResponse","type":"bool","internalType":"bool"}]}],"stateMutability":"view"},{"type":"function","name":"registerDataProvider","inputs":[{"name":"_newProvider","type":"address","internalType":"address"}],"outputs":[],"stateMutability":"nonpayable"},{"type":"function","name":"removeDataProvider","inputs":[{"name":"_provider","type":"address","internalType":"address"}],"outputs":[],"stateMutability":"nonpayable"},{"type":"function","name":"renounceRole","inputs":[{"name":"role","type":"bytes32","internalType":"bytes32"},{"name":"callerConfirmation","type":"address","internalType":"address"}],"outputs":[],"stateMutability":"nonpayable"},{"type":"function","name":"revokeRole","inputs":[{"name":"role","type":"bytes32","internalType":"bytes32"},{"name":"account","type":"address","internalType":"address"}],"outputs":[],"stateMutability":"nonpayable"},{"type":"function","name":"sendEther","inputs":[{"name":"_to","type":"address","internalType":"address payable"},{"name":"_amount","type":"uint256","internalType":"uint256"}],"outputs":[],"stateMutability":"nonpayable"},{"type":"function","name":"setNewPrice","inputs":[{"name":"_price","type":"uint256","internalType":"uint256"}],"outputs":[],"stateMutability":"nonpayable"},{"type":"function","name":"supportsInterface","inputs":[{"name":"interfaceId","type":"bytes4","internalType":"bytes4"}],"outputs":[{"name":"","type":"bool","internalType":"bool"}],"stateMutability":"view"},{"type":"function","name":"transferAdmin","inputs":[{"name":"_newAdmin","type":"address","internalType":"address"}],"outputs":[],"stateMutability":"nonpayable"},{"type":"function","name":"unpause","inputs":[],"outputs":[],"stateMutability":"nonpayable"},{"type":"function","name":"withdraw","inputs":[{"name":"_amount","type":"uint256","internalType":"uint256"}],"outputs":[],"stateMutability":"nonpayable"},{"type":"event","name":"DataProviderRegistered","inputs":[{"name":"provider","type":"address","indexed":false,"internalType":"address"}],"anonymous":false},{"type":"event","name":"DataProviderRemoved","inputs":[{"name":"provider","type":"address","indexed":false,"internalType":"address"}],"anonymous":false},{"type":"event","name":"Paused","inputs":[{"name":"account","type":"address","indexed":false,"internalType":"address"}],"anonymous":false},{"type":"event","name":"QueryCompleted","inputs":[{"name":"requestId","type":"uint256","indexed":true,"internalType":"uint256"}],"anonymous":false},{"type":"event","name":"QueryRequested","inputs":[{"name":"requestId","type":"uint256","indexed":false,"internalType":"uint256"},{"name":"question","type":"string","indexed":true,"internalType":"string"},{"name":"model","type":"uint8","indexed":true,"internalType":"enum Sibyl.AIModel"},{"name":"responseType","type":"uint8","indexed":true,"internalType":"enum Sibyl.ResponseType"}],"anonymous":false},{"type":"event","name":"RoleAdminChanged","inputs":[{"name":"role","type":"bytes32","indexed":true,"internalType":"bytes32"},{"name":"previousAdminRole","type":"bytes32","indexed":true,"internalType":"bytes32"},{"name":"newAdminRole","type":"bytes32","indexed":true,"internalType":"bytes32"}],"anonymous":false},{"type":"event","name":"RoleGranted","inputs":[{"name":"role","type":"bytes32","indexed":true,"internalType":"bytes32"},{"name":"account","type":"address","indexed":true,"internalType":"address"},{"name":"sender","type":"address","indexed":true,"internalType":"address"}],"anonymous":false},{"type":"event","name":"RoleRevoked","inputs":[{"name":"role","type":"bytes32","indexed":true,"internalType":"bytes32"},{"name":"account","type":"address","indexed":true,"internalType":"address"},{"name":"sender","type":"address","indexed":true,"internalType":"address"}],"anonymous":false},{"type":"event","name":"Unpaused","inputs":[{"name":"account","type":"address","indexed":false,"internalType":"address"}],"anonymous":false},{"type":"error","name":"AccessControlBadConfirmation","inputs":[]},{"type":"error","name":"AccessControlUnauthorizedAccount","inputs":[{"name":"account","type":"address","internalType":"address"},{"name":"neededRole","type":"bytes32","internalType":"bytes32"}]},{"type":"error","name":"EnforcedPause","inputs":[]},{"type":"error","name":"ExpectedPause","inputs":[]}],"bytecode":{"object":"0x608060405234801561001057600080fd5b506001805460ff19169055610026600033610048565b50600580546001600160a01b031916331790556509184e72a0006002556100f4565b6000828152602081815260408083206001600160a01b038516845290915281205460ff166100ea576000838152602081815260408083206001600160a01b03861684529091529020805460ff191660011790556100a23390565b6001600160a01b0316826001600160a01b0316847f2f8788117e7eff1d82e926ec794901d17c78024a50270940304540a733656f0d60405160405180910390a45060016100ee565b5060005b92915050565b6119de806101036000396000f3fe6080604052600436106101815760003560e01c8063733ef936116100d1578063a359bcf81161008a578063eb91d37e11610064578063eb91d37e14610445578063ee8cdd4e1461045a578063f9244dd71461047a578063fc6f94681461049a57600080fd5b8063a359bcf8146103f2578063c1756a2c14610405578063d547741f1461042557600080fd5b8063733ef93614610346578063754e5bea1461035b57806375829def146103885780638456cb59146103a857806391d14854146103bd578063a217fddf146103dd57600080fd5b80633aeae31d1161013e5780634c08301d116101185780634c08301d146102c157806354ce0c29146102e15780635c975abb146103015780636f07abcc1461031957600080fd5b80633aeae31d1461026a5780633f4ba83a1461028c5780634a2f25ef146102a157600080fd5b806301ffc9a71461018657806312065fe0146101bb578063248a9ca3146101d85780632e1a7d4d146102085780632f2ff15d1461022a57806336568abe1461024a575b600080fd5b34801561019257600080fd5b506101a66101a1366004611339565b6104d2565b60405190151581526020015b60405180910390f35b3480156101c757600080fd5b50475b6040519081526020016101b2565b3480156101e457600080fd5b506101ca6101f336600461136a565b60009081526020819052604090206001015490565b34801561021457600080fd5b5061022861022336600461136a565b610509565b005b34801561023657600080fd5b50610228610245366004611398565b6105e6565b34801561025657600080fd5b50610228610265366004611398565b610611565b34801561027657600080fd5b506101ca60008051602061198983398151915281565b34801561029857600080fd5b50610228610649565b3480156102ad57600080fd5b506102286102bc36600461136a565b61067a565b3480156102cd57600080fd5b506102286102dc3660046113c8565b61076f565b3480156102ed57600080fd5b506102286102fc36600461140b565b610886565b34801561030d57600080fd5b5060015460ff166101a6565b34801561032557600080fd5b5061033961033436600461136a565b610977565b6040516101b2919061143e565b34801561035257600080fd5b506102286109df565b34801561036757600080fd5b5061037b61037636600461136a565b610a24565b6040516101b2919061148a565b34801561039457600080fd5b506102286103a336600461140b565b610be0565b3480156103b457600080fd5b50610228610c39565b3480156103c957600080fd5b506101a66103d8366004611398565b610c68565b3480156103e957600080fd5b506101ca600081565b6101ca610400366004611515565b610c91565b34801561041157600080fd5b506102286104203660046115e7565b610f2a565b34801561043157600080fd5b50610228610440366004611398565b610ff4565b34801561045157600080fd5b506002546101ca565b34801561046657600080fd5b5061022861047536600461136a565b611019565b34801561048657600080fd5b5061022861049536600461140b565b611045565b3480156104a657600080fd5b506005546104ba906001600160a01b031681565b6040516001600160a01b0390911681526020016101b2565b60006001600160e01b03198216637965db0b60e01b148061050357506301ffc9a760e01b6001600160e01b03198316145b92915050565b610514600033610c68565b6105395760405162461bcd60e51b815260040161053090611613565b60405180910390fd5b6005546040516000916001600160a01b03169083905b60006040518083038185875af1925050503d806000811461058c576040519150601f19603f3d011682016040523d82523d6000602084013e610591565b606091505b50509050806105e25760405162461bcd60e51b815260206004820152601b60248201527f536962796c3a204661696c656420746f2073656e6420457468657200000000006044820152606401610530565b5050565b60008281526020819052604090206001015461060181611122565b61060b838361112f565b50505050565b6001600160a01b038116331461063a5760405163334bd91960e11b815260040160405180910390fd5b61064482826111c1565b505050565b610654600033610c68565b6106705760405162461bcd60e51b815260040161053090611613565b61067861122c565b565b61069260008051602061198983398151915233610c68565b6106ae5760405162461bcd60e51b81526004016105309061165b565b6106b661127e565b60008181526004602052604081206001015460ff1660028111156106dc576106dc611428565b146107295760405162461bcd60e51b815260206004820152601d60248201527f536962796c3a2052657175657374206973206e6f742070656e64696e670000006044820152606401610530565b600081815260046020526040808220600101805460ff191660021790555182917f0de420c5da6516ba5cbc6d6b0258077e6ce86d5356a1a7ebd4f7dab15bd56c6291a250565b61078760008051602061198983398151915233610c68565b6107a35760405162461bcd60e51b81526004016105309061165b565b6107ab61127e565b60008281526004602052604081206001015460ff1660028111156107d1576107d1611428565b1461081e5760405162461bcd60e51b815260206004820152601d60248201527f536962796c3a2052657175657374206973206e6f742050656e64696e670000006044820152606401610530565b6000828152600460205260409020819060020161083b8282611747565b50506000828152600460205260408082206001908101805460ff191690911790555183917f0de420c5da6516ba5cbc6d6b0258077e6ce86d5356a1a7ebd4f7dab15bd56c6291a25050565b610891600033610c68565b6108ad5760405162461bcd60e51b815260040161053090611613565b6108c560008051602061198983398151915282610c68565b1561091e5760405162461bcd60e51b8152602060048201526024808201527f536962796c3a204164647265737320697320616c726561647920612070726f7660448201526334b232b960e11b6064820152608401610530565b6109366000805160206119898339815191528261112f565b506040516001600160a01b03821681527fd07390e475bfdc18ba106196794bcf4a6cabae207f2499734bae62b97d87db78906020015b60405180910390a150565b600060035482106109c65760405162461bcd60e51b815260206004820152601960248201527814da589e5b0e88125b9d985b1a59081c995c5d595cdd081251603a1b6044820152606401610530565b5060009081526004602052604090206001015460ff1690565b6109ea600033610c68565b610a065760405162461bcd60e51b815260040161053090611613565b60055460405147916000916001600160a01b0390911690839061054f565b610a4a604051806060016040528060008152602001606081526020016000151581525090565b6003548210610a975760405162461bcd60e51b815260206004820152601960248201527814da589e5b0e88125b9d985b1a59081c995c5d595cdd081251603a1b6044820152606401610530565b600160008381526004602052604090206001015460ff166002811115610abf57610abf611428565b14610b0c5760405162461bcd60e51b815260206004820152601f60248201527f536962796c3a2052657175657374206973206e6f7420726573706f6e646564006044820152606401610530565b6004600083815260200190815260200160002060020160405180606001604052908160008201548152602001600182018054610b47906116ab565b80601f0160208091040260200160405190810160405280929190818152602001828054610b73906116ab565b8015610bc05780601f10610b9557610100808354040283529160200191610bc0565b820191906000526020600020905b815481529060010190602001808311610ba357829003601f168201915b50505091835250506002919091015460ff16151560209091015292915050565b610beb600033610c68565b610c075760405162461bcd60e51b815260040161053090611613565b610c1260008261112f565b50600580546001600160a01b0319166001600160a01b0383161790556105e26000336111c1565b610c44600033610c68565b610c605760405162461bcd60e51b815260040161053090611613565b6106786112a2565b6000918252602082815260408084206001600160a01b0393909316845291905290205460ff1690565b6000610c9b61127e565b6000845111610cec5760405162461bcd60e51b815260206004820152601f60248201527f536962796c3a205175657374696f6e2063616e6e6f7420626520656d707479006044820152606401610530565b6002548451610cfb919061187c565b341015610d4a5760405162461bcd60e51b815260206004820152601960248201527f536962796c3a20496e73756666696369656e742066756e6473000000000000006044820152606401610530565b6003805460009182610d5b83611893565b909155506040805160a081018252878152600060208201529192508101856003811115610d8a57610d8a611428565b8152602001604051806060016040528060008152602001604051806020016040528060008152508152602001600015158152508152602001846002811115610dd457610dd4611428565b9052600082815260046020526040902081518190610df290826118ac565b50602082015160018083018054909160ff1990911690836002811115610e1a57610e1a611428565b0217905550604082015160018201805461ff001916610100836003811115610e4457610e44611428565b0217905550606082015180516002830190815560208201516003840190610e6b90826118ac565b50604091909101516002918201805491151560ff1992831617905560808401516005840180549193909291909116906001908490811115610eae57610eae611428565b0217905550905050826002811115610ec857610ec8611428565b846003811115610eda57610eda611428565b86604051610ee8919061196c565b604051908190038120848252907f3fd509b6bac2f336aac2e19c4c04a229fa8d13ad14dc24f9bf04025983f6f9f49060200160405180910390a4949350505050565b610f35600033610c68565b610f515760405162461bcd60e51b815260040161053090611613565b6000826001600160a01b03168260405160006040518083038185875af1925050503d8060008114610f9e576040519150601f19603f3d011682016040523d82523d6000602084013e610fa3565b606091505b50509050806106445760405162461bcd60e51b815260206004820152601b60248201527f536962796c3a204661696c656420746f2073656e6420457468657200000000006044820152606401610530565b60008281526020819052604090206001015461100f81611122565b61060b83836111c1565b611024600033610c68565b6110405760405162461bcd60e51b815260040161053090611613565b600255565b611050600033610c68565b61106c5760405162461bcd60e51b815260040161053090611613565b61108460008051602061198983398151915282610c68565b6110d05760405162461bcd60e51b815260206004820181905260248201527f536962796c3a2041646472657373206973206e6f7420612070726f76696465726044820152606401610530565b6110e8600080516020611989833981519152826111c1565b506040516001600160a01b03821681527f033dfbce3ad1803151dcc8f4ca7cf22c5745f11a6d3931072ce7a9c3016d5e6c9060200161096c565b61112c81336112dd565b50565b600061113b8383610c68565b6111b9576000838152602081815260408083206001600160a01b03861684529091529020805460ff191660011790556111713390565b6001600160a01b0316826001600160a01b0316847f2f8788117e7eff1d82e926ec794901d17c78024a50270940304540a733656f0d60405160405180910390a4506001610503565b506000610503565b60006111cd8383610c68565b156111b9576000838152602081815260408083206001600160a01b0386168085529252808320805460ff1916905551339286917ff6391f5c32d9c69d2a47ea670b442974b53935d1edc7fd64eb21e047a839171b9190a4506001610503565b611234611316565b6001805460ff191690557f5db9ee0a495bf2e6ff9c91a7834c1ba4fdd244a5e8aa4e537bd38aeae4b073aa335b6040516001600160a01b03909116815260200160405180910390a1565b60015460ff16156106785760405163d93c066560e01b815260040160405180910390fd5b6112aa61127e565b6001805460ff1916811790557f62e78cea01bee320cd4e420270b5ea74000d11b0c9f74754ebdbfc544b05a25833611261565b6112e78282610c68565b6105e25760405163e2517d3f60e01b81526001600160a01b038216600482015260248101839052604401610530565b60015460ff1661067857604051638dfc202b60e01b815260040160405180910390fd5b60006020828403121561134b57600080fd5b81356001600160e01b03198116811461136357600080fd5b9392505050565b60006020828403121561137c57600080fd5b5035919050565b6001600160a01b038116811461112c57600080fd5b600080604083850312156113ab57600080fd5b8235915060208301356113bd81611383565b809150509250929050565b600080604083850312156113db57600080fd5b82359150602083013567ffffffffffffffff8111156113f957600080fd5b8301606081860312156113bd57600080fd5b60006020828403121561141d57600080fd5b813561136381611383565b634e487b7160e01b600052602160045260246000fd5b602081016003831061146057634e487b7160e01b600052602160045260246000fd5b91905290565b60005b83811015611481578181015183820152602001611469565b50506000910152565b6020815281516020820152600060208301516060604084015280518060808501526114bc8160a0860160208501611466565b6040949094015115156060840152505060a0601f909201601f1916010190565b634e487b7160e01b600052604160045260246000fd5b80356004811061150157600080fd5b919050565b80356003811061150157600080fd5b60008060006060848603121561152a57600080fd5b833567ffffffffffffffff8082111561154257600080fd5b818601915086601f83011261155657600080fd5b813581811115611568576115686114dc565b604051601f8201601f19908116603f01168101908382118183101715611590576115906114dc565b816040528281528960208487010111156115a957600080fd5b8260208601602083013760006020848301015280975050505050506115d0602085016114f2565b91506115de60408501611506565b90509250925092565b600080604083850312156115fa57600080fd5b823561160581611383565b946020939093013593505050565b60208082526028908201527f536962796c3a204f6e6c792061646d696e2063616e2063616c6c207468697320604082015267333ab731ba34b7b760c11b606082015260800190565b60208082526030908201527f536962796c3a204f6e6c7920646174612070726f76696465722063616e20636160408201526f3636103a3434b990333ab731ba34b7b760811b606082015260800190565b600181811c908216806116bf57607f821691505b6020821081036116df57634e487b7160e01b600052602260045260246000fd5b50919050565b601f821115610644576000816000526020600020601f850160051c8101602086101561170e5750805b601f850160051c820191505b8181101561172d5782815560010161171a565b505050505050565b60008135801515811461050357600080fd5b813581556001808201602080850135601e1986360301811261176857600080fd5b8501803567ffffffffffffffff81111561178157600080fd5b803603838301131561179257600080fd5b6117a6816117a086546116ab565b866116e5565b6000601f8211600181146117dc57600083156117c457508382018501355b600019600385901b1c1916600184901b178655611837565b600086815260209020601f19841690835b8281101561180c578685018801358255938701939089019087016117ed565b508482101561182b5760001960f88660031b161c198785880101351681555b505060018360011b0186555b505050505050506105e261184d60408401611735565b6002830160ff1981541660ff8315151681178255505050565b634e487b7160e01b600052601160045260246000fd5b808202811582820484141761050357610503611866565b6000600182016118a5576118a5611866565b5060010190565b815167ffffffffffffffff8111156118c6576118c66114dc565b6118da816118d484546116ab565b846116e5565b602080601f83116001811461190f57600084156118f75750858301515b600019600386901b1c1916600185901b17855561172d565b600085815260208120601f198616915b8281101561193e5788860151825594840194600190910190840161191f565b508582101561195c5787850151600019600388901b60f8161c191681555b5050505050600190811b01905550565b6000825161197e818460208701611466565b919091019291505056feb6f6b279a7a4e2aa16012cbd36fcdc1fbdb91b92fd6dab57885c9de496473a8da2646970667358221220ff8ff992bf7acd9555fee2d7f2b6e4b7a7be2e834e6740f6aa0509b2de743e2064736f6c63430008190033","linkReferences":{}},"methodIdentifiers":{"DATA_PROVIDER_ROLE()":"3aeae31d","DEFAULT_ADMIN_ROLE()":"a217fddf","adminAddress()":"fc6f9468","cancelPendingRequest(uint256)":"4a2f25ef","drainFunds()":"733ef936","fulfillRequest(uint256,(uint256,string,bool))":"4c08301d","getBalance()":"12065fe0","getCurrentPrice()":"eb91d37e","getQueryStatus(uint256)":"6f07abcc","getRoleAdmin(bytes32)":"248a9ca3","grantRole(bytes32,address)":"2f2ff15d","hasRole(bytes32,address)":"91d14854","pause()":"8456cb59","paused()":"5c975abb","query(string,uint8,uint8)":"a359bcf8","readResponse(uint256)":"754e5bea","registerDataProvider(address)":"54ce0c29","removeDataProvider(address)":"f9244dd7","renounceRole(bytes32,address)":"36568abe","revokeRole(bytes32,address)":"d547741f","sendEther(address,uint256)":"c1756a2c","setNewPrice(uint256)":"ee8cdd4e","supportsInterface(bytes4)":"01ffc9a7","transferAdmin(address)":"75829def","unpause()":"3f4ba83a","withdraw(uint256)":"2e1a7d4d"},"id":6}