{"abi":[{"type":"constructor","inputs":[],"stateMutability":"nonpayable"},{"type":"function","name":"DATA_PROVIDER_ROLE","inputs":[],"outputs":[{"name":"","type":"bytes32","internalType":"bytes32"}],"stateMutability":"view"},{"type":"function","name":"DEFAULT_ADMIN_ROLE","inputs":[],"outputs":[{"name":"","type":"bytes32","internalType":"bytes32"}],"stateMutability":"view"},{"type":"function","name":"adminAddress","inputs":[],"outputs":[{"name":"","type":"address","internalType":"address payable"}],"stateMutability":"view"},{"type":"function","name":"cancelPendingRequest","inputs":[{"name":"requestId","type":"uint256","internalType":"uint256"}],"outputs":[],"stateMutability":"nonpayable"},{"type":"function","name":"drainFunds","inputs":[],"outputs":[],"stateMutability":"nonpayable"},{"type":"function","name":"fulfillRequest","inputs":[{"name":"requestId","type":"uint256","internalType":"uint256"},{"name":"response","type":"tuple","internalType":"struct Sibyl.Response","components":[{"name":"integerResponse","type":"uint256","internalType":"uint256"},{"name":"stringResponse","type":"string","internalType":"string"},{"name":"boolResponse","type":"bool","internalType":"bool"}]}],"outputs":[],"stateMutability":"nonpayable"},{"type":"function","name":"getBalance","inputs":[],"outputs":[{"name":"","type":"uint256","internalType":"uint256"}],"stateMutability":"view"},{"type":"function","name":"getCurrentPrice","inputs":[],"outputs":[{"name":"","type":"uint256","internalType":"uint256"}],"stateMutability":"view"},{"type":"function","name":"getQueryStatus","inputs":[{"name":"requestId","type":"uint256","internalType":"uint256"}],"outputs":[{"name":"","type":"uint8","internalType":"enum Sibyl.RequestStatus"}],"stateMutability":"view"},{"type":"function","name":"getRoleAdmin","inputs":[{"name":"role","type":"bytes32","internalType":"bytes32"}],"outputs":[{"name":"","type":"bytes32","internalType":"bytes32"}],"stateMutability":"view"},{"type":"function","name":"grantRole","inputs":[{"name":"role","type":"bytes32","internalType":"bytes32"},{"name":"account","type":"address","internalType":"address"}],"outputs":[],"stateMutability":"nonpayable"},{"type":"function","name":"hasRole","inputs":[{"name":"role","type":"bytes32","internalType":"bytes32"},{"name":"account","type":"address","internalType":"address"}],"outputs":[{"name":"","type":"bool","internalType":"bool"}],"stateMutability":"view"},{"type":"function","name":"pause","inputs":[],"outputs":[],"stateMutability":"nonpayable"},{"type":"function","name":"paused","inputs":[],"outputs":[{"name":"","type":"bool","internalType":"bool"}],"stateMutability":"view"},{"type":"function","name":"query","inputs":[{"name":"question","type":"string","internalType":"string"},{"name":"responseType","type":"uint8","internalType":"enum Sibyl.ResponseType"}],"outputs":[{"name":"","type":"uint256","internalType":"uint256"}],"stateMutability":"payable"},{"type":"function","name":"readResponse","inputs":[{"name":"requestId","type":"uint256","internalType":"uint256"}],"outputs":[{"name":"","type":"tuple","internalType":"struct Sibyl.Response","components":[{"name":"integerResponse","type":"uint256","internalType":"uint256"},{"name":"stringResponse","type":"string","internalType":"string"},{"name":"boolResponse","type":"bool","internalType":"bool"}]}],"stateMutability":"view"},{"type":"function","name":"registerDataProvider","inputs":[{"name":"_newProvider","type":"address","internalType":"address"}],"outputs":[],"stateMutability":"nonpayable"},{"type":"function","name":"removeDataProvider","inputs":[{"name":"_provider","type":"address","internalType":"address"}],"outputs":[],"stateMutability":"nonpayable"},{"type":"function","name":"renounceRole","inputs":[{"name":"role","type":"bytes32","internalType":"bytes32"},{"name":"callerConfirmation","type":"address","internalType":"address"}],"outputs":[],"stateMutability":"nonpayable"},{"type":"function","name":"revokeRole","inputs":[{"name":"role","type":"bytes32","internalType":"bytes32"},{"name":"account","type":"address","internalType":"address"}],"outputs":[],"stateMutability":"nonpayable"},{"type":"function","name":"sendEther","inputs":[{"name":"_to","type":"address","internalType":"address payable"},{"name":"_amount","type":"uint256","internalType":"uint256"}],"outputs":[],"stateMutability":"nonpayable"},{"type":"function","name":"setNewPrice","inputs":[{"name":"_price","type":"uint256","internalType":"uint256"}],"outputs":[],"stateMutability":"nonpayable"},{"type":"function","name":"supportsInterface","inputs":[{"name":"interfaceId","type":"bytes4","internalType":"bytes4"}],"outputs":[{"name":"","type":"bool","internalType":"bool"}],"stateMutability":"view"},{"type":"function","name":"transferAdmin","inputs":[{"name":"_newAdmin","type":"address","internalType":"address"}],"outputs":[],"stateMutability":"nonpayable"},{"type":"function","name":"unpause","inputs":[],"outputs":[],"stateMutability":"nonpayable"},{"type":"function","name":"withdraw","inputs":[{"name":"_amount","type":"uint256","internalType":"uint256"}],"outputs":[],"stateMutability":"nonpayable"},{"type":"event","name":"DataProviderRegistered","inputs":[{"name":"provider","type":"address","indexed":false,"internalType":"address"}],"anonymous":false},{"type":"event","name":"DataProviderRemoved","inputs":[{"name":"provider","type":"address","indexed":false,"internalType":"address"}],"anonymous":false},{"type":"event","name":"Paused","inputs":[{"name":"account","type":"address","indexed":false,"internalType":"address"}],"anonymous":false},{"type":"event","name":"QueryCompleted","inputs":[{"name":"requestId","type":"uint256","indexed":true,"internalType":"uint256"}],"anonymous":false},{"type":"event","name":"QueryRequested","inputs":[{"name":"requestId","type":"uint256","indexed":false,"internalType":"uint256"},{"name":"question","type":"string","indexed":false,"internalType":"string"},{"name":"responseType","type":"uint8","indexed":false,"internalType":"enum Sibyl.ResponseType"},{"name":"callerAddress","type":"address","indexed":true,"internalType":"address"}],"anonymous":false},{"type":"event","name":"RoleAdminChanged","inputs":[{"name":"role","type":"bytes32","indexed":true,"internalType":"bytes32"},{"name":"previousAdminRole","type":"bytes32","indexed":true,"internalType":"bytes32"},{"name":"newAdminRole","type":"bytes32","indexed":true,"internalType":"bytes32"}],"anonymous":false},{"type":"event","name":"RoleGranted","inputs":[{"name":"role","type":"bytes32","indexed":true,"internalType":"bytes32"},{"name":"account","type":"address","indexed":true,"internalType":"address"},{"name":"sender","type":"address","indexed":true,"internalType":"address"}],"anonymous":false},{"type":"event","name":"RoleRevoked","inputs":[{"name":"role","type":"bytes32","indexed":true,"internalType":"bytes32"},{"name":"account","type":"address","indexed":true,"internalType":"address"},{"name":"sender","type":"address","indexed":true,"internalType":"address"}],"anonymous":false},{"type":"event","name":"Unpaused","inputs":[{"name":"account","type":"address","indexed":false,"internalType":"address"}],"anonymous":false},{"type":"error","name":"AccessControlBadConfirmation","inputs":[]},{"type":"error","name":"AccessControlUnauthorizedAccount","inputs":[{"name":"account","type":"address","internalType":"address"},{"name":"neededRole","type":"bytes32","internalType":"bytes32"}]},{"type":"error","name":"EnforcedPause","inputs":[]},{"type":"error","name":"ExpectedPause","inputs":[]}],"bytecode":{"object":"0x608060405234801561001057600080fd5b506001805460ff19169055610026600033610073565b506100517fb6f6b279a7a4e2aa16012cbd36fcdc1fbdb91b92fd6dab57885c9de496473a8d33610073565b50600580546001600160a01b031916331790556509184e72a00060025561011f565b6000828152602081815260408083206001600160a01b038516845290915281205460ff16610115576000838152602081815260408083206001600160a01b03861684529091529020805460ff191660011790556100cd3390565b6001600160a01b0316826001600160a01b0316847f2f8788117e7eff1d82e926ec794901d17c78024a50270940304540a733656f0d60405160405180910390a4506001610119565b5060005b92915050565b61197e8061012e6000396000f3fe6080604052600436106101815760003560e01c806372c92cdb116100d1578063a217fddf1161008a578063eb91d37e11610064578063eb91d37e14610445578063ee8cdd4e1461045a578063f9244dd71461047a578063fc6f94681461049a57600080fd5b8063a217fddf146103f0578063c1756a2c14610405578063d547741f1461042557600080fd5b806372c92cdb14610346578063733ef93614610359578063754e5bea1461036e57806375829def1461039b5780638456cb59146103bb57806391d14854146103d057600080fd5b80633aeae31d1161013e5780634c08301d116101185780634c08301d146102c157806354ce0c29146102e15780635c975abb146103015780636f07abcc1461031957600080fd5b80633aeae31d1461026a5780633f4ba83a1461028c5780634a2f25ef146102a157600080fd5b806301ffc9a71461018657806312065fe0146101bb578063248a9ca3146101d85780632e1a7d4d146102085780632f2ff15d1461022a57806336568abe1461024a575b600080fd5b34801561019257600080fd5b506101a66101a13660046112cb565b6104d2565b60405190151581526020015b60405180910390f35b3480156101c757600080fd5b50475b6040519081526020016101b2565b3480156101e457600080fd5b506101ca6101f33660046112fc565b60009081526020819052604090206001015490565b34801561021457600080fd5b506102286102233660046112fc565b610509565b005b34801561023657600080fd5b5061022861024536600461132a565b6105e6565b34801561025657600080fd5b5061022861026536600461132a565b610611565b34801561027657600080fd5b506101ca60008051602061192983398151915281565b34801561029857600080fd5b50610228610649565b3480156102ad57600080fd5b506102286102bc3660046112fc565b61067a565b3480156102cd57600080fd5b506102286102dc36600461135a565b61076f565b3480156102ed57600080fd5b506102286102fc36600461139d565b610886565b34801561030d57600080fd5b5060015460ff166101a6565b34801561032557600080fd5b506103396103343660046112fc565b610977565b6040516101b291906113ee565b6101ca61035436600461142b565b6109df565b34801561036557600080fd5b50610228610c0a565b34801561037a57600080fd5b5061038e6103893660046112fc565b610c4f565b6040516101b29190611533565b3480156103a757600080fd5b506102286103b636600461139d565b610e0b565b3480156103c757600080fd5b50610228610e64565b3480156103dc57600080fd5b506101a66103eb36600461132a565b610e93565b3480156103fc57600080fd5b506101ca600081565b34801561041157600080fd5b50610228610420366004611571565b610ebc565b34801561043157600080fd5b5061022861044036600461132a565b610f86565b34801561045157600080fd5b506002546101ca565b34801561046657600080fd5b506102286104753660046112fc565b610fab565b34801561048657600080fd5b5061022861049536600461139d565b610fd7565b3480156104a657600080fd5b506005546104ba906001600160a01b031681565b6040516001600160a01b0390911681526020016101b2565b60006001600160e01b03198216637965db0b60e01b148061050357506301ffc9a760e01b6001600160e01b03198316145b92915050565b610514600033610e93565b6105395760405162461bcd60e51b81526004016105309061159d565b60405180910390fd5b6005546040516000916001600160a01b03169083905b60006040518083038185875af1925050503d806000811461058c576040519150601f19603f3d011682016040523d82523d6000602084013e610591565b606091505b50509050806105e25760405162461bcd60e51b815260206004820152601b60248201527f536962796c3a204661696c656420746f2073656e6420457468657200000000006044820152606401610530565b5050565b600082815260208190526040902060010154610601816110b4565b61060b83836110c1565b50505050565b6001600160a01b038116331461063a5760405163334bd91960e11b815260040160405180910390fd5b6106448282611153565b505050565b610654600033610e93565b6106705760405162461bcd60e51b81526004016105309061159d565b6106786111be565b565b61069260008051602061192983398151915233610e93565b6106ae5760405162461bcd60e51b8152600401610530906115e5565b6106b6611210565b60008181526004602052604081206001015460ff1660028111156106dc576106dc6113ba565b146107295760405162461bcd60e51b815260206004820152601d60248201527f536962796c3a2052657175657374206973206e6f742070656e64696e670000006044820152606401610530565b600081815260046020526040808220600101805460ff191660021790555182917f0de420c5da6516ba5cbc6d6b0258077e6ce86d5356a1a7ebd4f7dab15bd56c6291a250565b61078760008051602061192983398151915233610e93565b6107a35760405162461bcd60e51b8152600401610530906115e5565b6107ab611210565b60008281526004602052604081206001015460ff1660028111156107d1576107d16113ba565b1461081e5760405162461bcd60e51b815260206004820152601d60248201527f536962796c3a2052657175657374206973206e6f742050656e64696e670000006044820152606401610530565b6000828152600460205260409020819060020161083b82826116d1565b50506000828152600460205260408082206001908101805460ff191690911790555183917f0de420c5da6516ba5cbc6d6b0258077e6ce86d5356a1a7ebd4f7dab15bd56c6291a25050565b610891600033610e93565b6108ad5760405162461bcd60e51b81526004016105309061159d565b6108c560008051602061192983398151915282610e93565b1561091e5760405162461bcd60e51b8152602060048201526024808201527f536962796c3a204164647265737320697320616c726561647920612070726f7660448201526334b232b960e11b6064820152608401610530565b610936600080516020611929833981519152826110c1565b506040516001600160a01b03821681527fd07390e475bfdc18ba106196794bcf4a6cabae207f2499734bae62b97d87db78906020015b60405180910390a150565b600060035482106109c65760405162461bcd60e51b815260206004820152601960248201527814da589e5b0e88125b9d985b1a59081c995c5d595cdd081251603a1b6044820152606401610530565b5060009081526004602052604090206001015460ff1690565b60006109e9611210565b6000835111610a3a5760405162461bcd60e51b815260206004820152601f60248201527f536962796c3a205175657374696f6e2063616e6e6f7420626520656d707479006044820152606401610530565b6002548351610a499190611806565b341015610a985760405162461bcd60e51b815260206004820152601960248201527f536962796c3a20496e73756666696369656e742066756e6473000000000000006044820152606401610530565b6003805460009182610aa98361181d565b9091555060408051608081019091528581529091506020810160008152602001604051806060016040528060008152602001604051806020016040528060008152508152602001600015158152508152602001846002811115610b0e57610b0e6113ba565b9052600082815260046020526040902081518190610b2c9082611836565b50602082015160018083018054909160ff1990911690836002811115610b5457610b546113ba565b0217905550604082015180516002830190815560208201516003840190610b7b9082611836565b50604091909101516002918201805491151560ff1992831617905560608401516005840180549193909291909116906001908490811115610bbe57610bbe6113ba565b0217905550506040513391507f83387e4fd7c17a4645a6c6f0aeba8c7b7817c3b7722ff69e6a7059a3e51269f090610bfb908490889088906118f6565b60405180910390a29392505050565b610c15600033610e93565b610c315760405162461bcd60e51b81526004016105309061159d565b60055460405147916000916001600160a01b0390911690839061054f565b610c75604051806060016040528060008152602001606081526020016000151581525090565b6003548210610cc25760405162461bcd60e51b815260206004820152601960248201527814da589e5b0e88125b9d985b1a59081c995c5d595cdd081251603a1b6044820152606401610530565b600160008381526004602052604090206001015460ff166002811115610cea57610cea6113ba565b14610d375760405162461bcd60e51b815260206004820152601f60248201527f536962796c3a2052657175657374206973206e6f7420726573706f6e646564006044820152606401610530565b6004600083815260200190815260200160002060020160405180606001604052908160008201548152602001600182018054610d7290611635565b80601f0160208091040260200160405190810160405280929190818152602001828054610d9e90611635565b8015610deb5780601f10610dc057610100808354040283529160200191610deb565b820191906000526020600020905b815481529060010190602001808311610dce57829003601f168201915b50505091835250506002919091015460ff16151560209091015292915050565b610e16600033610e93565b610e325760405162461bcd60e51b81526004016105309061159d565b610e3d6000826110c1565b50600580546001600160a01b0319166001600160a01b0383161790556105e2600033611153565b610e6f600033610e93565b610e8b5760405162461bcd60e51b81526004016105309061159d565b610678611234565b6000918252602082815260408084206001600160a01b0393909316845291905290205460ff1690565b610ec7600033610e93565b610ee35760405162461bcd60e51b81526004016105309061159d565b6000826001600160a01b03168260405160006040518083038185875af1925050503d8060008114610f30576040519150601f19603f3d011682016040523d82523d6000602084013e610f35565b606091505b50509050806106445760405162461bcd60e51b815260206004820152601b60248201527f536962796c3a204661696c656420746f2073656e6420457468657200000000006044820152606401610530565b600082815260208190526040902060010154610fa1816110b4565b61060b8383611153565b610fb6600033610e93565b610fd25760405162461bcd60e51b81526004016105309061159d565b600255565b610fe2600033610e93565b610ffe5760405162461bcd60e51b81526004016105309061159d565b61101660008051602061192983398151915282610e93565b6110625760405162461bcd60e51b815260206004820181905260248201527f536962796c3a2041646472657373206973206e6f7420612070726f76696465726044820152606401610530565b61107a60008051602061192983398151915282611153565b506040516001600160a01b03821681527f033dfbce3ad1803151dcc8f4ca7cf22c5745f11a6d3931072ce7a9c3016d5e6c9060200161096c565b6110be813361126f565b50565b60006110cd8383610e93565b61114b576000838152602081815260408083206001600160a01b03861684529091529020805460ff191660011790556111033390565b6001600160a01b0316826001600160a01b0316847f2f8788117e7eff1d82e926ec794901d17c78024a50270940304540a733656f0d60405160405180910390a4506001610503565b506000610503565b600061115f8383610e93565b1561114b576000838152602081815260408083206001600160a01b0386168085529252808320805460ff1916905551339286917ff6391f5c32d9c69d2a47ea670b442974b53935d1edc7fd64eb21e047a839171b9190a4506001610503565b6111c66112a8565b6001805460ff191690557f5db9ee0a495bf2e6ff9c91a7834c1ba4fdd244a5e8aa4e537bd38aeae4b073aa335b6040516001600160a01b03909116815260200160405180910390a1565b60015460ff16156106785760405163d93c066560e01b815260040160405180910390fd5b61123c611210565b6001805460ff1916811790557f62e78cea01bee320cd4e420270b5ea74000d11b0c9f74754ebdbfc544b05a258336111f3565b6112798282610e93565b6105e25760405163e2517d3f60e01b81526001600160a01b038216600482015260248101839052604401610530565b60015460ff1661067857604051638dfc202b60e01b815260040160405180910390fd5b6000602082840312156112dd57600080fd5b81356001600160e01b0319811681146112f557600080fd5b9392505050565b60006020828403121561130e57600080fd5b5035919050565b6001600160a01b03811681146110be57600080fd5b6000806040838503121561133d57600080fd5b82359150602083013561134f81611315565b809150509250929050565b6000806040838503121561136d57600080fd5b82359150602083013567ffffffffffffffff81111561138b57600080fd5b83016060818603121561134f57600080fd5b6000602082840312156113af57600080fd5b81356112f581611315565b634e487b7160e01b600052602160045260246000fd5b600381106110be57634e487b7160e01b600052602160045260246000fd5b602081016113fb836113d0565b91905290565b634e487b7160e01b600052604160045260246000fd5b80356003811061142657600080fd5b919050565b6000806040838503121561143e57600080fd5b823567ffffffffffffffff8082111561145657600080fd5b818501915085601f83011261146a57600080fd5b81358181111561147c5761147c611401565b604051601f8201601f19908116603f011681019083821181831017156114a4576114a4611401565b816040528281528860208487010111156114bd57600080fd5b8260208601602083013760006020848301015280965050505050506114e460208401611417565b90509250929050565b6000815180845260005b81811015611513576020818501810151868301820152016114f7565b506000602082860101526020601f19601f83011685010191505092915050565b6020815281516020820152600060208301516060604084015261155960808401826114ed565b90506040840151151560608401528091505092915050565b6000806040838503121561158457600080fd5b823561158f81611315565b946020939093013593505050565b60208082526028908201527f536962796c3a204f6e6c792061646d696e2063616e2063616c6c207468697320604082015267333ab731ba34b7b760c11b606082015260800190565b60208082526030908201527f536962796c3a204f6e6c7920646174612070726f76696465722063616e20636160408201526f3636103a3434b990333ab731ba34b7b760811b606082015260800190565b600181811c9082168061164957607f821691505b60208210810361166957634e487b7160e01b600052602260045260246000fd5b50919050565b601f821115610644576000816000526020600020601f850160051c810160208610156116985750805b601f850160051c820191505b818110156116b7578281556001016116a4565b505050505050565b60008135801515811461050357600080fd5b813581556001808201602080850135601e198636030181126116f257600080fd5b8501803567ffffffffffffffff81111561170b57600080fd5b803603838301131561171c57600080fd5b6117308161172a8654611635565b8661166f565b6000601f821160018114611766576000831561174e57508382018501355b600019600385901b1c1916600184901b1786556117c1565b600086815260209020601f19841690835b8281101561179657868501880135825593870193908901908701611777565b50848210156117b55760001960f88660031b161c198785880101351681555b505060018360011b0186555b505050505050506105e26117d7604084016116bf565b6002830160ff1981541660ff8315151681178255505050565b634e487b7160e01b600052601160045260246000fd5b8082028115828204841417610503576105036117f0565b60006001820161182f5761182f6117f0565b5060010190565b815167ffffffffffffffff81111561185057611850611401565b6118648161185e8454611635565b8461166f565b602080601f83116001811461189957600084156118815750858301515b600019600386901b1c1916600185901b1785556116b7565b600085815260208120601f198616915b828110156118c8578886015182559484019460019091019084016118a9565b50858210156118e65787850151600019600388901b60f8161c191681555b5050505050600190811b01905550565b83815260606020820152600061190f60608301856114ed565b905061191a836113d0565b82604083015294935050505056feb6f6b279a7a4e2aa16012cbd36fcdc1fbdb91b92fd6dab57885c9de496473a8da2646970667358221220563d990b0ffd993c5bb8d159a4ee52c4df9f49e58ae489844e5bff440186706864736f6c63430008190033","linkReferences":{}},"methodIdentifiers":{"DATA_PROVIDER_ROLE()":"3aeae31d","DEFAULT_ADMIN_ROLE()":"a217fddf","adminAddress()":"fc6f9468","cancelPendingRequest(uint256)":"4a2f25ef","drainFunds()":"733ef936","fulfillRequest(uint256,(uint256,string,bool))":"4c08301d","getBalance()":"12065fe0","getCurrentPrice()":"eb91d37e","getQueryStatus(uint256)":"6f07abcc","getRoleAdmin(bytes32)":"248a9ca3","grantRole(bytes32,address)":"2f2ff15d","hasRole(bytes32,address)":"91d14854","pause()":"8456cb59","paused()":"5c975abb","query(string,uint8)":"72c92cdb","readResponse(uint256)":"754e5bea","registerDataProvider(address)":"54ce0c29","removeDataProvider(address)":"f9244dd7","renounceRole(bytes32,address)":"36568abe","revokeRole(bytes32,address)":"d547741f","sendEther(address,uint256)":"c1756a2c","setNewPrice(uint256)":"ee8cdd4e","supportsInterface(bytes4)":"01ffc9a7","transferAdmin(address)":"75829def","unpause()":"3f4ba83a","withdraw(uint256)":"2e1a7d4d"},"id":6}