{"abi":[{"type":"constructor","inputs":[],"stateMutability":"nonpayable"},{"type":"function","name":"DATA_PROVIDER_ROLE","inputs":[],"outputs":[{"name":"","type":"bytes32","internalType":"bytes32"}],"stateMutability":"view"},{"type":"function","name":"DEFAULT_ADMIN_ROLE","inputs":[],"outputs":[{"name":"","type":"bytes32","internalType":"bytes32"}],"stateMutability":"view"},{"type":"function","name":"adminAddress","inputs":[],"outputs":[{"name":"","type":"address","internalType":"address payable"}],"stateMutability":"view"},{"type":"function","name":"cancelPendingRequest","inputs":[{"name":"requestId","type":"uint256","internalType":"uint256"}],"outputs":[],"stateMutability":"nonpayable"},{"type":"function","name":"drainFunds","inputs":[],"outputs":[],"stateMutability":"nonpayable"},{"type":"function","name":"fulfillRequest","inputs":[{"name":"requestId","type":"uint256","internalType":"uint256"},{"name":"response","type":"tuple","internalType":"struct Sibyl.Response","components":[{"name":"integerResponse","type":"uint256","internalType":"uint256"},{"name":"stringResponse","type":"string","internalType":"string"},{"name":"boolResponse","type":"bool","internalType":"bool"}]}],"outputs":[],"stateMutability":"nonpayable"},{"type":"function","name":"getBalance","inputs":[],"outputs":[{"name":"","type":"uint256","internalType":"uint256"}],"stateMutability":"view"},{"type":"function","name":"getCurrentPrice","inputs":[],"outputs":[{"name":"","type":"uint256","internalType":"uint256"}],"stateMutability":"view"},{"type":"function","name":"getQueryStatus","inputs":[{"name":"requestId","type":"uint256","internalType":"uint256"}],"outputs":[{"name":"","type":"uint8","internalType":"enum Sibyl.RequestStatus"}],"stateMutability":"view"},{"type":"function","name":"getRoleAdmin","inputs":[{"name":"role","type":"bytes32","internalType":"bytes32"}],"outputs":[{"name":"","type":"bytes32","internalType":"bytes32"}],"stateMutability":"view"},{"type":"function","name":"grantRole","inputs":[{"name":"role","type":"bytes32","internalType":"bytes32"},{"name":"account","type":"address","internalType":"address"}],"outputs":[],"stateMutability":"nonpayable"},{"type":"function","name":"hasRole","inputs":[{"name":"role","type":"bytes32","internalType":"bytes32"},{"name":"account","type":"address","internalType":"address"}],"outputs":[{"name":"","type":"bool","internalType":"bool"}],"stateMutability":"view"},{"type":"function","name":"pause","inputs":[],"outputs":[],"stateMutability":"nonpayable"},{"type":"function","name":"paused","inputs":[],"outputs":[{"name":"","type":"bool","internalType":"bool"}],"stateMutability":"view"},{"type":"function","name":"query","inputs":[{"name":"question","type":"string","internalType":"string"},{"name":"model","type":"uint8","internalType":"enum Sibyl.AIModel"},{"name":"responseType","type":"uint8","internalType":"enum Sibyl.ResponseType"}],"outputs":[{"name":"","type":"uint256","internalType":"uint256"}],"stateMutability":"payable"},{"type":"function","name":"readResponse","inputs":[{"name":"requestId","type":"uint256","internalType":"uint256"}],"outputs":[{"name":"","type":"tuple","internalType":"struct Sibyl.Response","components":[{"name":"integerResponse","type":"uint256","internalType":"uint256"},{"name":"stringResponse","type":"string","internalType":"string"},{"name":"boolResponse","type":"bool","internalType":"bool"}]}],"stateMutability":"view"},{"type":"function","name":"registerDataProvider","inputs":[{"name":"_newProvider","type":"address","internalType":"address"}],"outputs":[],"stateMutability":"nonpayable"},{"type":"function","name":"removeDataProvider","inputs":[{"name":"_provider","type":"address","internalType":"address"}],"outputs":[],"stateMutability":"nonpayable"},{"type":"function","name":"renounceRole","inputs":[{"name":"role","type":"bytes32","internalType":"bytes32"},{"name":"callerConfirmation","type":"address","internalType":"address"}],"outputs":[],"stateMutability":"nonpayable"},{"type":"function","name":"revokeRole","inputs":[{"name":"role","type":"bytes32","internalType":"bytes32"},{"name":"account","type":"address","internalType":"address"}],"outputs":[],"stateMutability":"nonpayable"},{"type":"function","name":"sendEther","inputs":[{"name":"_to","type":"address","internalType":"address payable"},{"name":"_amount","type":"uint256","internalType":"uint256"}],"outputs":[],"stateMutability":"nonpayable"},{"type":"function","name":"setNewPrice","inputs":[{"name":"_price","type":"uint256","internalType":"uint256"}],"outputs":[],"stateMutability":"nonpayable"},{"type":"function","name":"supportsInterface","inputs":[{"name":"interfaceId","type":"bytes4","internalType":"bytes4"}],"outputs":[{"name":"","type":"bool","internalType":"bool"}],"stateMutability":"view"},{"type":"function","name":"transferAdmin","inputs":[{"name":"_newAdmin","type":"address","internalType":"address"}],"outputs":[],"stateMutability":"nonpayable"},{"type":"function","name":"unpause","inputs":[],"outputs":[],"stateMutability":"nonpayable"},{"type":"function","name":"withdraw","inputs":[{"name":"_amount","type":"uint256","internalType":"uint256"}],"outputs":[],"stateMutability":"nonpayable"},{"type":"event","name":"DataProviderRegistered","inputs":[{"name":"provider","type":"address","indexed":false,"internalType":"address"}],"anonymous":false},{"type":"event","name":"DataProviderRemoved","inputs":[{"name":"provider","type":"address","indexed":false,"internalType":"address"}],"anonymous":false},{"type":"event","name":"Paused","inputs":[{"name":"account","type":"address","indexed":false,"internalType":"address"}],"anonymous":false},{"type":"event","name":"QueryCompleted","inputs":[{"name":"requestId","type":"uint256","indexed":false,"internalType":"uint256"}],"anonymous":false},{"type":"event","name":"QueryRequested","inputs":[{"name":"requestId","type":"uint256","indexed":false,"internalType":"uint256"},{"name":"question","type":"string","indexed":false,"internalType":"string"},{"name":"model","type":"uint8","indexed":false,"internalType":"enum Sibyl.AIModel"},{"name":"responseType","type":"uint8","indexed":false,"internalType":"enum Sibyl.ResponseType"}],"anonymous":false},{"type":"event","name":"RoleAdminChanged","inputs":[{"name":"role","type":"bytes32","indexed":true,"internalType":"bytes32"},{"name":"previousAdminRole","type":"bytes32","indexed":true,"internalType":"bytes32"},{"name":"newAdminRole","type":"bytes32","indexed":true,"internalType":"bytes32"}],"anonymous":false},{"type":"event","name":"RoleGranted","inputs":[{"name":"role","type":"bytes32","indexed":true,"internalType":"bytes32"},{"name":"account","type":"address","indexed":true,"internalType":"address"},{"name":"sender","type":"address","indexed":true,"internalType":"address"}],"anonymous":false},{"type":"event","name":"RoleRevoked","inputs":[{"name":"role","type":"bytes32","indexed":true,"internalType":"bytes32"},{"name":"account","type":"address","indexed":true,"internalType":"address"},{"name":"sender","type":"address","indexed":true,"internalType":"address"}],"anonymous":false},{"type":"event","name":"Unpaused","inputs":[{"name":"account","type":"address","indexed":false,"internalType":"address"}],"anonymous":false},{"type":"error","name":"AccessControlBadConfirmation","inputs":[]},{"type":"error","name":"AccessControlUnauthorizedAccount","inputs":[{"name":"account","type":"address","internalType":"address"},{"name":"neededRole","type":"bytes32","internalType":"bytes32"}]},{"type":"error","name":"EnforcedPause","inputs":[]},{"type":"error","name":"ExpectedPause","inputs":[]}],"bytecode":{"object":"0x608060405234801561001057600080fd5b506001805460ff19169055610026600033610048565b50600580546001600160a01b031916331790556509184e72a0006002556100f4565b6000828152602081815260408083206001600160a01b038516845290915281205460ff166100ea576000838152602081815260408083206001600160a01b03861684529091529020805460ff191660011790556100a23390565b6001600160a01b0316826001600160a01b0316847f2f8788117e7eff1d82e926ec794901d17c78024a50270940304540a733656f0d60405160405180910390a45060016100ee565b5060005b92915050565b6119fa806101036000396000f3fe6080604052600436106101815760003560e01c8063733ef936116100d1578063a359bcf81161008a578063eb91d37e11610064578063eb91d37e14610445578063ee8cdd4e1461045a578063f9244dd71461047a578063fc6f94681461049a57600080fd5b8063a359bcf8146103f2578063c1756a2c14610405578063d547741f1461042557600080fd5b8063733ef93614610346578063754e5bea1461035b57806375829def146103885780638456cb59146103a857806391d14854146103bd578063a217fddf146103dd57600080fd5b80633aeae31d1161013e5780634c08301d116101185780634c08301d146102c157806354ce0c29146102e15780635c975abb146103015780636f07abcc1461031957600080fd5b80633aeae31d1461026a5780633f4ba83a1461028c5780634a2f25ef146102a157600080fd5b806301ffc9a71461018657806312065fe0146101bb578063248a9ca3146101d85780632e1a7d4d146102085780632f2ff15d1461022a57806336568abe1461024a575b600080fd5b34801561019257600080fd5b506101a66101a136600461131f565b6104d2565b60405190151581526020015b60405180910390f35b3480156101c757600080fd5b50475b6040519081526020016101b2565b3480156101e457600080fd5b506101ca6101f3366004611350565b60009081526020819052604090206001015490565b34801561021457600080fd5b50610228610223366004611350565b610509565b005b34801561023657600080fd5b5061022861024536600461137e565b6105e6565b34801561025657600080fd5b5061022861026536600461137e565b610611565b34801561027657600080fd5b506101ca6000805160206119a583398151915281565b34801561029857600080fd5b50610228610649565b3480156102ad57600080fd5b506102286102bc366004611350565b61067a565b3480156102cd57600080fd5b506102286102dc3660046113ae565b61077d565b3480156102ed57600080fd5b506102286102fc3660046113f1565b6108a2565b34801561030d57600080fd5b5060015460ff166101a6565b34801561032557600080fd5b50610339610334366004611350565b61098c565b6040516101b29190611434565b34801561035257600080fd5b506102286109f4565b34801561036757600080fd5b5061037b610376366004611350565b610a39565b6040516101b2919061148d565b34801561039457600080fd5b506102286103a33660046113f1565b610bf5565b3480156103b457600080fd5b50610228610c4e565b3480156103c957600080fd5b506101a66103d836600461137e565b610c7d565b3480156103e957600080fd5b506101ca600081565b6101ca610400366004611504565b610ca6565b34801561041157600080fd5b506102286104203660046115d6565b610f10565b34801561043157600080fd5b5061022861044036600461137e565b610fda565b34801561045157600080fd5b506002546101ca565b34801561046657600080fd5b50610228610475366004611350565b610fff565b34801561048657600080fd5b506102286104953660046113f1565b61102b565b3480156104a657600080fd5b506005546104ba906001600160a01b031681565b6040516001600160a01b0390911681526020016101b2565b60006001600160e01b03198216637965db0b60e01b148061050357506301ffc9a760e01b6001600160e01b03198316145b92915050565b610514600033610c7d565b6105395760405162461bcd60e51b815260040161053090611602565b60405180910390fd5b6005546040516000916001600160a01b03169083905b60006040518083038185875af1925050503d806000811461058c576040519150601f19603f3d011682016040523d82523d6000602084013e610591565b606091505b50509050806105e25760405162461bcd60e51b815260206004820152601b60248201527f536962796c3a204661696c656420746f2073656e6420457468657200000000006044820152606401610530565b5050565b60008281526020819052604090206001015461060181611108565b61060b8383611115565b50505050565b6001600160a01b038116331461063a5760405163334bd91960e11b815260040160405180910390fd5b61064482826111a7565b505050565b610654600033610c7d565b6106705760405162461bcd60e51b815260040161053090611602565b610678611212565b565b6106926000805160206119a583398151915233610c7d565b6106ae5760405162461bcd60e51b81526004016105309061164a565b6106b6611264565b60008181526004602052604081206001015460ff1660028111156106dc576106dc61140e565b146107295760405162461bcd60e51b815260206004820152601d60248201527f536962796c3a2052657175657374206973206e6f742070656e64696e670000006044820152606401610530565b600081815260046020908152604091829020600101805460ff1916600217905590518281527f0de420c5da6516ba5cbc6d6b0258077e6ce86d5356a1a7ebd4f7dab15bd56c6291015b60405180910390a150565b6107956000805160206119a583398151915233610c7d565b6107b15760405162461bcd60e51b81526004016105309061164a565b6107b9611264565b60008281526004602052604081206001015460ff1660028111156107df576107df61140e565b1461082c5760405162461bcd60e51b815260206004820152601d60248201527f536962796c3a2052657175657374206973206e6f742050656e64696e670000006044820152606401610530565b600082815260046020526040902081906002016108498282611736565b505060008281526004602052604090206001908101805460ff1916828002179055506040518281527f0de420c5da6516ba5cbc6d6b0258077e6ce86d5356a1a7ebd4f7dab15bd56c629060200160405180910390a15050565b6108ad600033610c7d565b6108c95760405162461bcd60e51b815260040161053090611602565b6108e16000805160206119a583398151915282610c7d565b1561093a5760405162461bcd60e51b8152602060048201526024808201527f536962796c3a204164647265737320697320616c726561647920612070726f7660448201526334b232b960e11b6064820152608401610530565b6109526000805160206119a583398151915282611115565b506040516001600160a01b03821681527fd07390e475bfdc18ba106196794bcf4a6cabae207f2499734bae62b97d87db7890602001610772565b600060035482106109db5760405162461bcd60e51b815260206004820152601960248201527814da589e5b0e88125b9d985b1a59081c995c5d595cdd081251603a1b6044820152606401610530565b5060009081526004602052604090206001015460ff1690565b6109ff600033610c7d565b610a1b5760405162461bcd60e51b815260040161053090611602565b60055460405147916000916001600160a01b0390911690839061054f565b610a5f604051806060016040528060008152602001606081526020016000151581525090565b6003548210610aac5760405162461bcd60e51b815260206004820152601960248201527814da589e5b0e88125b9d985b1a59081c995c5d595cdd081251603a1b6044820152606401610530565b600160008381526004602052604090206001015460ff166002811115610ad457610ad461140e565b14610b215760405162461bcd60e51b815260206004820152601f60248201527f536962796c3a2052657175657374206973206e6f7420726573706f6e646564006044820152606401610530565b6004600083815260200190815260200160002060020160405180606001604052908160008201548152602001600182018054610b5c9061169a565b80601f0160208091040260200160405190810160405280929190818152602001828054610b889061169a565b8015610bd55780601f10610baa57610100808354040283529160200191610bd5565b820191906000526020600020905b815481529060010190602001808311610bb857829003601f168201915b50505091835250506002919091015460ff16151560209091015292915050565b610c00600033610c7d565b610c1c5760405162461bcd60e51b815260040161053090611602565b610c27600082611115565b50600580546001600160a01b0319166001600160a01b0383161790556105e26000336111a7565b610c59600033610c7d565b610c755760405162461bcd60e51b815260040161053090611602565b610678611288565b6000918252602082815260408084206001600160a01b0393909316845291905290205460ff1690565b6000610cb0611264565b6000845111610d015760405162461bcd60e51b815260206004820152601f60248201527f536962796c3a205175657374696f6e2063616e6e6f7420626520656d707479006044820152606401610530565b6002548451610d10919061186b565b341015610d5f5760405162461bcd60e51b815260206004820152601960248201527f536962796c3a20496e73756666696369656e742066756e6473000000000000006044820152606401610530565b6003805460009182610d7083611882565b909155506040805160a081018252878152600060208201529192508101856003811115610d9f57610d9f61140e565b8152602001604051806060016040528060008152602001604051806020016040528060008152508152602001600015158152508152602001846002811115610de957610de961140e565b9052600082815260046020526040902081518190610e07908261189b565b50602082015160018083018054909160ff1990911690836002811115610e2f57610e2f61140e565b0217905550604082015160018201805461ff001916610100836003811115610e5957610e5961140e565b0217905550606082015180516002830190815560208201516003840190610e80908261189b565b50604091909101516002918201805491151560ff1992831617905560808401516005840180549193909291909116906001908490811115610ec357610ec361140e565b02179055509050507f3fd509b6bac2f336aac2e19c4c04a229fa8d13ad14dc24f9bf04025983f6f9f481868686604051610f00949392919061195b565b60405180910390a1949350505050565b610f1b600033610c7d565b610f375760405162461bcd60e51b815260040161053090611602565b6000826001600160a01b03168260405160006040518083038185875af1925050503d8060008114610f84576040519150601f19603f3d011682016040523d82523d6000602084013e610f89565b606091505b50509050806106445760405162461bcd60e51b815260206004820152601b60248201527f536962796c3a204661696c656420746f2073656e6420457468657200000000006044820152606401610530565b600082815260208190526040902060010154610ff581611108565b61060b83836111a7565b61100a600033610c7d565b6110265760405162461bcd60e51b815260040161053090611602565b600255565b611036600033610c7d565b6110525760405162461bcd60e51b815260040161053090611602565b61106a6000805160206119a583398151915282610c7d565b6110b65760405162461bcd60e51b815260206004820181905260248201527f536962796c3a2041646472657373206973206e6f7420612070726f76696465726044820152606401610530565b6110ce6000805160206119a5833981519152826111a7565b506040516001600160a01b03821681527f033dfbce3ad1803151dcc8f4ca7cf22c5745f11a6d3931072ce7a9c3016d5e6c90602001610772565b61111281336112c3565b50565b60006111218383610c7d565b61119f576000838152602081815260408083206001600160a01b03861684529091529020805460ff191660011790556111573390565b6001600160a01b0316826001600160a01b0316847f2f8788117e7eff1d82e926ec794901d17c78024a50270940304540a733656f0d60405160405180910390a4506001610503565b506000610503565b60006111b38383610c7d565b1561119f576000838152602081815260408083206001600160a01b0386168085529252808320805460ff1916905551339286917ff6391f5c32d9c69d2a47ea670b442974b53935d1edc7fd64eb21e047a839171b9190a4506001610503565b61121a6112fc565b6001805460ff191690557f5db9ee0a495bf2e6ff9c91a7834c1ba4fdd244a5e8aa4e537bd38aeae4b073aa335b6040516001600160a01b03909116815260200160405180910390a1565b60015460ff16156106785760405163d93c066560e01b815260040160405180910390fd5b611290611264565b6001805460ff1916811790557f62e78cea01bee320cd4e420270b5ea74000d11b0c9f74754ebdbfc544b05a25833611247565b6112cd8282610c7d565b6105e25760405163e2517d3f60e01b81526001600160a01b038216600482015260248101839052604401610530565b60015460ff1661067857604051638dfc202b60e01b815260040160405180910390fd5b60006020828403121561133157600080fd5b81356001600160e01b03198116811461134957600080fd5b9392505050565b60006020828403121561136257600080fd5b5035919050565b6001600160a01b038116811461111257600080fd5b6000806040838503121561139157600080fd5b8235915060208301356113a381611369565b809150509250929050565b600080604083850312156113c157600080fd5b82359150602083013567ffffffffffffffff8111156113df57600080fd5b8301606081860312156113a357600080fd5b60006020828403121561140357600080fd5b813561134981611369565b634e487b7160e01b600052602160045260246000fd5b600381106111125761111261140e565b6020810161144183611424565b91905290565b6000815180845260005b8181101561146d57602081850181015186830182015201611451565b506000602082860101526020601f19601f83011685010191505092915050565b602081528151602082015260006020830151606060408401526114b36080840182611447565b90506040840151151560608401528091505092915050565b634e487b7160e01b600052604160045260246000fd5b8035600481106114f057600080fd5b919050565b8035600381106114f057600080fd5b60008060006060848603121561151957600080fd5b833567ffffffffffffffff8082111561153157600080fd5b818601915086601f83011261154557600080fd5b813581811115611557576115576114cb565b604051601f8201601f19908116603f0116810190838211818310171561157f5761157f6114cb565b8160405282815289602084870101111561159857600080fd5b8260208601602083013760006020848301015280975050505050506115bf602085016114e1565b91506115cd604085016114f5565b90509250925092565b600080604083850312156115e957600080fd5b82356115f481611369565b946020939093013593505050565b60208082526028908201527f536962796c3a204f6e6c792061646d696e2063616e2063616c6c207468697320604082015267333ab731ba34b7b760c11b606082015260800190565b60208082526030908201527f536962796c3a204f6e6c7920646174612070726f76696465722063616e20636160408201526f3636103a3434b990333ab731ba34b7b760811b606082015260800190565b600181811c908216806116ae57607f821691505b6020821081036116ce57634e487b7160e01b600052602260045260246000fd5b50919050565b601f821115610644576000816000526020600020601f850160051c810160208610156116fd5750805b601f850160051c820191505b8181101561171c57828155600101611709565b505050505050565b60008135801515811461050357600080fd5b813581556001808201602080850135601e1986360301811261175757600080fd5b8501803567ffffffffffffffff81111561177057600080fd5b803603838301131561178157600080fd5b6117958161178f865461169a565b866116d4565b6000601f8211600181146117cb57600083156117b357508382018501355b600019600385901b1c1916600184901b178655611826565b600086815260209020601f19841690835b828110156117fb578685018801358255938701939089019087016117dc565b508482101561181a5760001960f88660031b161c198785880101351681555b505060018360011b0186555b505050505050506105e261183c60408401611724565b6002830160ff1981541660ff8315151681178255505050565b634e487b7160e01b600052601160045260246000fd5b808202811582820484141761050357610503611855565b60006001820161189457611894611855565b5060010190565b815167ffffffffffffffff8111156118b5576118b56114cb565b6118c9816118c3845461169a565b846116d4565b602080601f8311600181146118fe57600084156118e65750858301515b600019600386901b1c1916600185901b17855561171c565b600085815260208120601f198616915b8281101561192d5788860151825594840194600190910190840161190e565b508582101561194b5787850151600019600388901b60f8161c191681555b5050505050600190811b01905550565b8481526080602082015260006119746080830186611447565b9050600484106119865761198661140e565b83604083015261199583611424565b8260608301529594505050505056feb6f6b279a7a4e2aa16012cbd36fcdc1fbdb91b92fd6dab57885c9de496473a8da26469706673582212207b33355eedaf4294fdd8c0bbe53bf40960f53fd41350312b618e7ef2eef4020d64736f6c63430008190033","linkReferences":{}},"methodIdentifiers":{"DATA_PROVIDER_ROLE()":"3aeae31d","DEFAULT_ADMIN_ROLE()":"a217fddf","adminAddress()":"fc6f9468","cancelPendingRequest(uint256)":"4a2f25ef","drainFunds()":"733ef936","fulfillRequest(uint256,(uint256,string,bool))":"4c08301d","getBalance()":"12065fe0","getCurrentPrice()":"eb91d37e","getQueryStatus(uint256)":"6f07abcc","getRoleAdmin(bytes32)":"248a9ca3","grantRole(bytes32,address)":"2f2ff15d","hasRole(bytes32,address)":"91d14854","pause()":"8456cb59","paused()":"5c975abb","query(string,uint8,uint8)":"a359bcf8","readResponse(uint256)":"754e5bea","registerDataProvider(address)":"54ce0c29","removeDataProvider(address)":"f9244dd7","renounceRole(bytes32,address)":"36568abe","revokeRole(bytes32,address)":"d547741f","sendEther(address,uint256)":"c1756a2c","setNewPrice(uint256)":"ee8cdd4e","supportsInterface(bytes4)":"01ffc9a7","transferAdmin(address)":"75829def","unpause()":"3f4ba83a","withdraw(uint256)":"2e1a7d4d"},"id":6}