{"abi":[{"type":"constructor","inputs":[{"name":"defaultAdmin","type":"address","internalType":"address"}],"stateMutability":"nonpayable"},{"type":"function","name":"DATA_PROVIDER_ROLE","inputs":[],"outputs":[{"name":"","type":"bytes32","internalType":"bytes32"}],"stateMutability":"view"},{"type":"function","name":"DEFAULT_ADMIN_ROLE","inputs":[],"outputs":[{"name":"","type":"bytes32","internalType":"bytes32"}],"stateMutability":"view"},{"type":"function","name":"getRoleAdmin","inputs":[{"name":"role","type":"bytes32","internalType":"bytes32"}],"outputs":[{"name":"","type":"bytes32","internalType":"bytes32"}],"stateMutability":"view"},{"type":"function","name":"grantRole","inputs":[{"name":"role","type":"bytes32","internalType":"bytes32"},{"name":"account","type":"address","internalType":"address"}],"outputs":[],"stateMutability":"nonpayable"},{"type":"function","name":"hasRole","inputs":[{"name":"role","type":"bytes32","internalType":"bytes32"},{"name":"account","type":"address","internalType":"address"}],"outputs":[{"name":"","type":"bool","internalType":"bool"}],"stateMutability":"view"},{"type":"function","name":"markRequestAsFailed","inputs":[{"name":"requestId","type":"uint256","internalType":"uint256"}],"outputs":[],"stateMutability":"nonpayable"},{"type":"function","name":"pause","inputs":[],"outputs":[],"stateMutability":"nonpayable"},{"type":"function","name":"paused","inputs":[],"outputs":[{"name":"","type":"bool","internalType":"bool"}],"stateMutability":"view"},{"type":"function","name":"query","inputs":[{"name":"queryData","type":"tuple","internalType":"struct Sibyl.Query","components":[{"name":"question","type":"string","internalType":"string"},{"name":"responseType","type":"uint8","internalType":"enum Sibyl.ResponseType"},{"name":"model","type":"uint8","internalType":"enum Sibyl.AIModel"}]}],"outputs":[{"name":"","type":"uint256","internalType":"uint256"}],"stateMutability":"nonpayable"},{"type":"function","name":"registerDataProvider","inputs":[{"name":"_newProvider","type":"address","internalType":"address"}],"outputs":[],"stateMutability":"nonpayable"},{"type":"function","name":"removeDataProvider","inputs":[{"name":"_provider","type":"address","internalType":"address"}],"outputs":[],"stateMutability":"nonpayable"},{"type":"function","name":"renounceRole","inputs":[{"name":"role","type":"bytes32","internalType":"bytes32"},{"name":"callerConfirmation","type":"address","internalType":"address"}],"outputs":[],"stateMutability":"nonpayable"},{"type":"function","name":"respond","inputs":[{"name":"requestId","type":"uint256","internalType":"uint256"},{"name":"response","type":"tuple","internalType":"struct Sibyl.Response","components":[{"name":"responseType","type":"uint8","internalType":"enum Sibyl.ResponseType"},{"name":"integerResponse","type":"uint256","internalType":"uint256"},{"name":"stringResponse","type":"string","internalType":"string"},{"name":"boolResponse","type":"bool","internalType":"bool"}]}],"outputs":[],"stateMutability":"nonpayable"},{"type":"function","name":"revokeRole","inputs":[{"name":"role","type":"bytes32","internalType":"bytes32"},{"name":"account","type":"address","internalType":"address"}],"outputs":[],"stateMutability":"nonpayable"},{"type":"function","name":"supportsInterface","inputs":[{"name":"interfaceId","type":"bytes4","internalType":"bytes4"}],"outputs":[{"name":"","type":"bool","internalType":"bool"}],"stateMutability":"view"},{"type":"function","name":"unpause","inputs":[],"outputs":[],"stateMutability":"nonpayable"},{"type":"event","name":"Paused","inputs":[{"name":"account","type":"address","indexed":false,"internalType":"address"}],"anonymous":false},{"type":"event","name":"QueryRequest","inputs":[{"name":"requestId","type":"uint256","indexed":false,"internalType":"uint256"},{"name":"query","type":"tuple","indexed":false,"internalType":"struct Sibyl.Query","components":[{"name":"question","type":"string","internalType":"string"},{"name":"responseType","type":"uint8","internalType":"enum Sibyl.ResponseType"},{"name":"model","type":"uint8","internalType":"enum Sibyl.AIModel"}]}],"anonymous":false},{"type":"event","name":"QueryResponse","inputs":[{"name":"requestId","type":"uint256","indexed":false,"internalType":"uint256"},{"name":"response","type":"tuple","indexed":false,"internalType":"struct Sibyl.Response","components":[{"name":"responseType","type":"uint8","internalType":"enum Sibyl.ResponseType"},{"name":"integerResponse","type":"uint256","internalType":"uint256"},{"name":"stringResponse","type":"string","internalType":"string"},{"name":"boolResponse","type":"bool","internalType":"bool"}]}],"anonymous":false},{"type":"event","name":"RoleAdminChanged","inputs":[{"name":"role","type":"bytes32","indexed":true,"internalType":"bytes32"},{"name":"previousAdminRole","type":"bytes32","indexed":true,"internalType":"bytes32"},{"name":"newAdminRole","type":"bytes32","indexed":true,"internalType":"bytes32"}],"anonymous":false},{"type":"event","name":"RoleGranted","inputs":[{"name":"role","type":"bytes32","indexed":true,"internalType":"bytes32"},{"name":"account","type":"address","indexed":true,"internalType":"address"},{"name":"sender","type":"address","indexed":true,"internalType":"address"}],"anonymous":false},{"type":"event","name":"RoleRevoked","inputs":[{"name":"role","type":"bytes32","indexed":true,"internalType":"bytes32"},{"name":"account","type":"address","indexed":true,"internalType":"address"},{"name":"sender","type":"address","indexed":true,"internalType":"address"}],"anonymous":false},{"type":"event","name":"Unpaused","inputs":[{"name":"account","type":"address","indexed":false,"internalType":"address"}],"anonymous":false},{"type":"error","name":"AccessControlBadConfirmation","inputs":[]},{"type":"error","name":"AccessControlUnauthorizedAccount","inputs":[{"name":"account","type":"address","internalType":"address"},{"name":"neededRole","type":"bytes32","internalType":"bytes32"}]},{"type":"error","name":"EnforcedPause","inputs":[]},{"type":"error","name":"ExpectedPause","inputs":[]}],"bytecode":{"object":"0x608060405234801561001057600080fd5b50604051610d1f380380610d1f83398101604081905261002f916100f7565b6001805460ff1916905561004460008261004b565b5050610127565b6000828152602081815260408083206001600160a01b038516845290915281205460ff166100ed576000838152602081815260408083206001600160a01b03861684529091529020805460ff191660011790556100a53390565b6001600160a01b0316826001600160a01b0316847f2f8788117e7eff1d82e926ec794901d17c78024a50270940304540a733656f0d60405160405180910390a45060016100f1565b5060005b92915050565b60006020828403121561010957600080fd5b81516001600160a01b038116811461012057600080fd5b9392505050565b610be9806101366000396000f3fe608060405234801561001057600080fd5b50600436106101005760003560e01c806354ce0c291161009757806391d148541161006657806391d1485414610202578063a217fddf14610215578063d547741f1461021d578063f9244dd71461023057600080fd5b806354ce0c29146101c95780635c975abb146101dc5780635eb070a8146101e75780638456cb59146101fa57600080fd5b806336568abe116100d357806336568abe146101865780633aeae31d146101995780633f4ba83a146101ae57806354cc4938146101b657600080fd5b806301ffc9a714610105578063248a9ca31461012d5780632f2ff15d1461015e57806331ee464314610173575b600080fd5b610118610113366004610806565b610243565b60405190151581526020015b60405180910390f35b61015061013b366004610837565b60009081526020819052604090206001015490565b604051908152602001610124565b61017161016c36600461086c565b61027a565b005b610171610181366004610898565b6102a5565b61017161019436600461086c565b610383565b610150600080516020610b9483398151915281565b6101716103bb565b6101506101c43660046108e6565b6103d1565b6101716101d7366004610921565b610442565b60015460ff16610118565b6101716101f5366004610837565b610465565b610171610568565b61011861021036600461086c565b61057b565b610150600081565b61017161022b36600461086c565b6105a4565b61017161023e366004610921565b6105c9565b60006001600160e01b03198216637965db0b60e01b148061027457506301ffc9a760e01b6001600160e01b03198316145b92915050565b600082815260208190526040902060010154610295816105ec565b61029f83836105f6565b50505050565b600080516020610b948339815191526102bd816105ec565b60008381526003602052604081205460ff1660028111156102e0576102e061093c565b1461032b5760405162461bcd60e51b815260206004820152601660248201527552657175657374206973206e6f742070656e64696e6760501b60448201526064015b60405180910390fd5b60008381526003602052604090819020805460ff19166001179055517fb0e4de92d238ac878950cf08c05c7f8e5a401168ae725aae2a3d05e69107f44a9061037690859085906109f3565b60405180910390a1505050565b6001600160a01b03811633146103ac5760405163334bd91960e11b815260040160405180910390fd5b6103b68282610688565b505050565b60006103c6816105ec565b6103ce6106f3565b50565b60028054600091829190826103e583610a6e565b9091555060008181526003602052604090819020805460ff19169055519091507f71cbdffee5a6cd6c04cafff4e5fcbbf7f2d50c8203f39dba5016c2bb28a51f39906104349083908690610a95565b60405180910390a192915050565b600061044d816105ec565b6103b6600080516020610b94833981519152836105f6565b600080516020610b9483398151915261047d816105ec565b60008281526003602052604081205460ff1660028111156104a0576104a061093c565b146104e65760405162461bcd60e51b815260206004820152601660248201527552657175657374206973206e6f742070656e64696e6760501b6044820152606401610322565b6000828152600360208181526040808420805460ff1916600217905580516080810182529283528282018490528051918201815283825282810191909152606082019290925290517fb0e4de92d238ac878950cf08c05c7f8e5a401168ae725aae2a3d05e69107f44a9161055c91859190610b07565b60405180910390a15050565b6000610573816105ec565b6103ce610745565b6000918252602082815260408084206001600160a01b0393909316845291905290205460ff1690565b6000828152602081905260409020600101546105bf816105ec565b61029f8383610688565b60006105d4816105ec565b6103b6600080516020610b9483398151915283610688565b6103ce8133610780565b6000610602838361057b565b610680576000838152602081815260408083206001600160a01b03861684529091529020805460ff191660011790556106383390565b6001600160a01b0316826001600160a01b0316847f2f8788117e7eff1d82e926ec794901d17c78024a50270940304540a733656f0d60405160405180910390a4506001610274565b506000610274565b6000610694838361057b565b15610680576000838152602081815260408083206001600160a01b0386168085529252808320805460ff1916905551339286917ff6391f5c32d9c69d2a47ea670b442974b53935d1edc7fd64eb21e047a839171b9190a4506001610274565b6106fb6107bd565b6001805460ff191690557f5db9ee0a495bf2e6ff9c91a7834c1ba4fdd244a5e8aa4e537bd38aeae4b073aa335b6040516001600160a01b03909116815260200160405180910390a1565b61074d6107e2565b6001805460ff1916811790557f62e78cea01bee320cd4e420270b5ea74000d11b0c9f74754ebdbfc544b05a25833610728565b61078a828261057b565b6107b95760405163e2517d3f60e01b81526001600160a01b038216600482015260248101839052604401610322565b5050565b60015460ff166107e057604051638dfc202b60e01b815260040160405180910390fd5b565b60015460ff16156107e05760405163d93c066560e01b815260040160405180910390fd5b60006020828403121561081857600080fd5b81356001600160e01b03198116811461083057600080fd5b9392505050565b60006020828403121561084957600080fd5b5035919050565b80356001600160a01b038116811461086757600080fd5b919050565b6000806040838503121561087f57600080fd5b8235915061088f60208401610850565b90509250929050565b600080604083850312156108ab57600080fd5b82359150602083013567ffffffffffffffff8111156108c957600080fd5b8301608081860312156108db57600080fd5b809150509250929050565b6000602082840312156108f857600080fd5b813567ffffffffffffffff81111561090f57600080fd5b82016060818503121561083057600080fd5b60006020828403121561093357600080fd5b61083082610850565b634e487b7160e01b600052602160045260246000fd5b600481106103ce57600080fd5b600481106103ce57634e487b7160e01b600052602160045260246000fd5b6000808335601e1984360301811261099457600080fd5b830160208101925035905067ffffffffffffffff8111156109b457600080fd5b8036038213156109c357600080fd5b9250929050565b81835281816020850137506000828201602090810191909152601f909101601f19169091010190565b8281526040602082015260008235610a0a81610952565b610a138161095f565b8060408401525060208301356060830152610a31604084018461097d565b608080850152610a4560c0850182846109ca565b9150506060840135801515808214610a5c57600080fd5b60a09490940193909352949350505050565b600060018201610a8e57634e487b7160e01b600052601160045260246000fd5b5060010190565b828152604060208201526000610aab838461097d565b60606040850152610ac060a0850182846109ca565b9150506020840135610ad181610952565b610ada8161095f565b60608401526040840135610aed81610952565b610af68161095f565b608093909301929092525092915050565b82815260006020604060208401528351610b208161095f565b8060408501525060208401516060840152604084015160808085015280518060c086015260005b81811015610b635782810184015186820160e001528301610b47565b50600085820160e00152606086015180151560a08701529250601f01601f19169390930160e0019594505050505056feb6f6b279a7a4e2aa16012cbd36fcdc1fbdb91b92fd6dab57885c9de496473a8da26469706673582212207c9b175b9c628e6ee5c977297c58cd12aa68afb0270f526b83e9825e588305e964736f6c63430008190033","linkReferences":{}},"methodIdentifiers":{"DATA_PROVIDER_ROLE()":"3aeae31d","DEFAULT_ADMIN_ROLE()":"a217fddf","getRoleAdmin(bytes32)":"248a9ca3","grantRole(bytes32,address)":"2f2ff15d","hasRole(bytes32,address)":"91d14854","markRequestAsFailed(uint256)":"5eb070a8","pause()":"8456cb59","paused()":"5c975abb","query((string,uint8,uint8))":"54cc4938","registerDataProvider(address)":"54ce0c29","removeDataProvider(address)":"f9244dd7","renounceRole(bytes32,address)":"36568abe","respond(uint256,(uint8,uint256,string,bool))":"31ee4643","revokeRole(bytes32,address)":"d547741f","supportsInterface(bytes4)":"01ffc9a7","unpause()":"3f4ba83a"},"id":32}